S12300008128800A860A8D0A930A990A9F0AA50AAB0AB10AB70ABC0AC20AC70ACC0AD10AA5
S1230020D60ADA0ADF0AE30AE70AEA0AEE0AF10AF40AF60AF80AFA0AFC0AFD0AFF0AFF0A27
S1230040FF0AFF0AFF0AFF0AFE0AFD0AFB0AF90AF70AF50AF20AEF0AEC0AE90AE50AE10AA9
S1230060DD0AD80AD40ACF0ACA0AC50ABF0ABA0AB40AAE0AA80AA20A9C0A960A900A890A85
S1230080830A800A790A720A6C0A660A600A5A0A550A4E0A480A430A3D0A380A330A2E0A3E
S12300A0290A250A200A1C0A180A150A110A0E0A0B0A090A070A050A030A020A000A000AA1
S12300C0000A000A000A000A010A020A040A060A080A0A0A0D0A100A130A160A1A0A1E0ADF
S12300E0220A270A2B0A300A350A3A0A400A450A4C0A510A570A5D0A630A690A6F0A760AC2
S12301007C0A570B9515010B9615800BFF20981516169715590B9915010B9A1517169B15B9
S123012018169C15FF0B971F0330981B1B161C170335ED28040B191F9B159C1D9C141A16F5
S12301409C1F1B1695151C169615800BFF209E1516169D15191695151A169615800BFF208F
S1230160A0159C1516169F159B15020B191F9B159C1D9C141A169C1F1B1695151C16961584
S1230180800BFF209C15A21516169B15A1151D16A1151E16A215FF0B9D1F03309E1B2116FA
S12301A022170335E8281F16951520169615800BEF20A1151B168415833F1C34833B2116D9
S12301C080159F190335A0199B1903359C19C728060B991F03349A198E283F290C00000868
S12301E00335F62880080335FA28000A1516841500160C0016168A15151682150C00000832
S123020003350729800803350E29961D000A1516841500169615841900160C00FA209415B7
S12302209518961B9619FA2093151416961513160C008E3B020BA615A61B000B2617033113
S12302401C29053885302129053C053985302629853C053985302A29853C25130330053D21
S12302600334053985303229853C053885303629853C0C00080BC5150538053C0C003A2144
S1230280871D800B0712033440290716010EA315000B0334010EA4152316951524169615BC
S12302A0800BEF20A5151921871941290C00010A000A5F0A010A270A000A010A000A000AB3
S30500001230B8
S903FFFFFE
