S1070000A52A0C001D
S113001041321228413E050BCC1531383038303985
S1230020303AB03B0D00B0321728B03EB0380C00B1305428B0315428063886380639303200
S12300405428303E86362B28AF19040B2F1203302B28AF1D303B30333B2886323B28AF1925
S1230060040B2F1203303B28AF1D303FB03D063C863C063DB038A5190335A619130B261234
S123008003314428890B251203305428A51DA61D063C863C063DAE19020B2E1203305428B3
S12300A0AE1DB03AB03DB0380C00B1306329B0306329100B2C1203346129600B2C1F821566
S12300C070287E2889289728A228B028BB28C928D428E228ED28FB28062914291F293529A8
S12300E0853C063E863DE72105347B28AC198538063A863963290F0BAC15632930316329EF
S1230100303DAB19150B2B1203306329AB1DAC196329853C063E863DE72105349428AC19EB
S12301208538063A863963290F0BAC15632930316329303DAB19150B2B1203306329AB1D0A
S1230140AC196329853C063E863DE7210534AD28AC198538063A863963290F0BAC156329F8
S123016030316329303DAB19150B2B1203306329AB1DAC196329853C063E863DE72105341F
S1230180C628AC198538063A863963290F0BAC15632930316329303DAB19150B2B1203304B
S12301A06329AB1DAC196329853C063E863DE7210534DF28AC198538063A863963290F0B5F
S12301C0AC15632930316329303DAB19150B2B1203306329AB1DAC196329853C063E863DB3
S12301E0E7210534F828AC198538063A863963290F0BAC15632930316329303DAB19150BE8
S12302002B1203306329AB1DAC196329853C063E863DE72105341129AC198538063A863901
S123022063290F0BAC15632930316329303DAB19150B2B1203306329AB1DAC196329853CB3
S1230240063E863DE72105343229AC198538063A8639B03CB039A3190335A419A51DA61D6B
S1230260303F63290F0BAC156329A21D8637A2192216000B0335010BA21522130330863F76
S12302800334863B8538063A8639B0336329B03FAD19C90B2D1203306329AD1D080B891535
S12302A0080B88150E000B0083355929AC1DAD1D5A29AD1D881D010B8915C00B8B150E008F
S12302C063290F0BAC150C00B130E6293131E629030B07120334E6296F0B071F8215722907
S12302E09F29D8293030E629303CA819650B28120330E629A81DA01D8534A0192016000B74
S12303000335010BA015A11520130330853C03348538A01D0535A0192016000B0335010BDA
S1230320A015A11520130330053D03340539A719040B27120330E629A71D8719E629853CB3
S1230340063E863D3030E629303CA819FB0B28120330C729A81DA01D8534A0192016000B5E
S12303600335010BA015A11520130330853C03348538A01D0535A0192016000B0335010B7A
S1230380A015A11520130330053D033405390530D629A919040B29120330E629A91D8719E9
S12303A08538063A863985380539E629A91DE629080B8815080B89150E000B00891D010B72
S12303C08815C00B8D15313DB038AC1D0C00140B9E151E169F151F1B9E15000B1E170331C9
S12303E0E9290C009C1516169B1515169A151A1695151B1696151C1695229D15000B1D17E4
S123040003350A2A1D160B229A1903359B1903359C19F7290C009815863F580B2722991D80
S1230420080B191203341F2A1830182A863B192A863F033C9813580B27229919102A863B64
S1230440580B2722580B2722580B27220C009715C11D1716411203342F2A0E00292A0C0081
S1230460CF1D0B3B8E3B0C00413A463DE00BCF15863B6C0B27226C0B27228E3F0C008336D1
S123048020168415801D8419801504100331422A833620168415801D8419C00B0410033131
S12304A04B2A83360C000C0B8015800B8115E90B8B15FF0B8C158D1D8E1D8F1D0D0BC11503
S12304C0600BC515C61DCB1D200BCC15210BCD15010BCE15C00BCF150C003130942A313CB8
S12304E00531742AB21D762A010BB2153316321003317B2A932AB419150B34120330942A9D
S1230500B41D3216B3153316010803318C2AB1383139B03C871D942AB13C85380539853874
S1230520063A8639942AB41D0C00000803359C2A80080335A02A000A1516841500160C009D
S121054016168A15151682150C005322053886390E006D22642155201820A82A0C00E2
S30500001230B8
S903FFFFFE
