S123000000008228800A860A8D0A930A990A9F0AA50AAB0AB10AB70ABC0AC20AC70ACC0A7F
S1230020D10AD60ADA0ADF0AE30AE70AEA0AEE0AF10AF40AF60AF80AFA0AFC0AFD0AFF0A55
S1230040FF0AFF0AFF0AFF0AFF0AFE0AFD0AFB0AF90AF70AF50AF20AEF0AEC0AE90AE50A8B
S1230060E10ADD0AD80AD40ACF0ACA0AC50ABF0ABA0AB40AAE0AA80AA20A9C0A960A900A2D
S1230080890A830A800A790A720A6C0A660A600A5A0A550A4E0A480A430A3D0A380A330AE3
S12300A02E0A290A250A200A1C0A180A150A110A0E0A0B0A090A070A050A030A020A000A73
S12300C0000A000A000A000A000A010A020A040A060A080A0A0A0D0A100A130A160A1A0AFD
S12300E01E0A220A270A2B0A300A350A3A0A400A450A4C0A510A570A5D0A630A690A6F0A1A
S1230100760A7C0A580B9E15010B9F15800B0021A1151F16A0155A0BA215010BA31520169D
S1230120A4152116A515FF0BA01F0330A11B241625170335EE28040B221FA415A51DA51411
S12301402316A51F24169E1525169F15800B0021A7151F16A61522169E1523169F15800B07
S12301600021A915A5151F16A815A415020B221FA415A51DA5142316A51F24169E15251690
S12301809F15800B0021A515AB151F16A415AA152616AA152716AB15FF0BA61F0330A71B18
S12301A02A162B170335E92828169E1529169F15800BF020AA1524168415833F2534833B86
S12301C02A168015A8190335A919A4190335A519C828060BA21F0334A3198F2840290C00F7
S12301E000080335F72880080335FB28000A1E16841500160C001F168A151E1682150C0015
S1230200000803350829800803350F299F1D000A1E16841500169F15841900160C00FB203A
S12302209D159E189F1B9F19FB209C151D169F151C160C008E3B020BAF15AF1B000B2F173A
S123024003311D29053885302229053C053985302729853C053985302B29853C2E13033022
S1230260053D0334053985303329853C053885303729853C0C00080BC5150538053C0C005B
S12302803B21871D800B0712033441290716020EAC15000B0334010EAD152C169E152D16DC
S12302A09F15800BF020AE151A21871942290C00010A000A600A010A300A000A010A000AF3
S10502C0000A2E
S30500001230B8
S903FFFFFE
