S12300000180282D241F202D251F092D261F102D271F282D301F202D311F092D321F102D2F
S1230020331F102D281F692D291F4E2D2A1FE42D2B1F102D301F692D311F4E2D321FE42D9A
S1230040331F282D2C1F202D2D1F572D2E1F232D2F1F282D301F202D311F572D321F232D3C
S1230060331F802D341FE32D351F232D361F902D371F802D301FE32D311F232D321F902D54
S1230080331F382D301F892D311F572D321FF42D331FF42D231F572D221F892D211F382D85
S12300A0201FA82D301F032D311F7B2D321FB32D331FB32D231F7B2D221F032D211FA82DDE
S12300C0201F182D301FB72D311FBA2D321F2B2D331F2B2D231FBA2D221FB72D211F182D08
S12300E0201FA82D301F3C2D311F332D321F932D331F932D231F332D221F3C2D211FA82DFC
S1230100201F382D301F892D311FA52D321F072D331F072D231FA52D221F892D211F382D55
S1230120201FA82D301F032D311F2D2D321FA02D331FA02D231F2D2D221F032D211FA82D1F
S1230140201F302B312B322B802D331F802D231F222B212B182D201F302B312B322B802D7C
S11D0160331F802D231F222B212BA82D201F282D201F292D201FBB80000E21
S3050000417049
S903FFFFFE
