S10B0000000A000A000A000ACC
S1130010A6150311BC150F3CA00B8115B419CC0B0C
S1230020341203303928B41D000B351703351928B51B000B351703311E28B51B000B361778
S123004003352328B61B000B361703312828B61BA01D0534A0192016A11501080331362865
S12300600516A015FE0B201E851537280538051C8515051C8515AB19A01D3236A0192016E1
S1230080A11501080331452800220A0B2B1203304B28AB1DB2383C118315A61126110D0050
S12300A08E3F010BC615010B991519130330463C033446380E00B421D1218E3B070BB815BB
S12300C0000B351703316728863A0538063AB2316028B23D000B361703317028050BB6156C
S12300E0241699151916100803317728D2281916120803317C28B62819161C0803318128D1
S1230100DE2819161E080331862860281916210803318B28C2281916220803319028D428AC
S12301201916470803319528CD281916550803319A28E8281916590803319F28BA28191629
S12301405A080331A428AF2819165B080331A928602819165C080331AE28D0286028060B15
S1230160B815800BCF15800BC9156028B81DCF1DC91D6028B8190A0B3812033060280A0B1F
S1230180B8156028000B38170335C728B81B000B381703316028B81D6028000BF320602899
S12301A005396028053D6028000B351703316028863E050BB515010BB7156028000B351743
S12301C003316028053C050BB515020BB7156028000B351703316028063E050BB515030BA4
S12301E0B71560280C009F157021A00B3521A00B3521A00B3521A00B3521A00B3521A00BA6
S12302003521A00B3521A00B352159211F16352159217021A10B352159211E21BA154E2179
S123022065210C009D1516169E157021A00B35211D1635211E16352165210C009B1DC63BA7
S12302409C1D080B1C1203343129033C9B14463F063F7B21463B7B2186332F291B389C1985
S12302602129463F063F1B160C009B159C1D080B1C1203344B29463F063F7B219B33422935
S1230280C63B4329C63F863F033C9B147B21463B7B219C193729463F063F0C00463F063FC7
S12302A07B21C63B7B21463B7B21463F063F7B210C00463F063F7B21C63F863F7B21463B25
S12302C07B21463F063F7B210C00C63F863F7B21463B7B21C63B7B21463F063F7B210C007A
S12302E0C63B7B21463B7B21C63F863F7B21463F063F7B210C00640B9A15000B1A170335D6
S123030083299A1B7D290C0000000000863900000000000000000000000000000000000007
S12303200000000000000000000000000000000000000000000000000000000000000000B9
S1230340000000000000000000000000000000000000000000000000000000000000000099
S12303600B00000000000C003F0B84152F0B8715841B801D871A00000000000000000000CC
S12303800000000000000000000000000000000000000000000000000000CA29801D871D25
S12303A00C00F10B8515C51D8D1DFF0B8615010BC6158D1D010BC1150E38CC1DCC3B420B70
S12303C0C815C838C80BCC15F90BCE15100BCF15500BC9150C00AE19FA0B2E120330FF29F6
S12303E0AE1DB338AF19F00B2F120330FF29AF1DB019020B30120330FF29B01D33390C0060
S1230400B235B42A32350E2A0634ED2A3239B23E323FAC1DAD1DBD1DBE1DED2AB236482A9E
S123042032372A2ABE19640B3E120334282A971D063497191716981501080331ED2A3D0BC8
S12304403E120330262ABE1D323BED2A323DED2A323DED2ABE19320B3E12971D03301738C0
S1230460000B17170335462A0634ED2A290B3E120330442A000B17170335422ABE1D323FF8
S1230480B23AED2A323DED2A323DED2A323DED2A3237622ABE190A0B3E120334602A971D1D
S12304A0063497191716981501080331ED2A040B3E1203305E2ABE1D323BED2A323DED2A21
S12304C0323DED2ABE19140B3E120334B22A0634ED2A030B3E120330ED2A080B3E120334A6
S12304E0912ABE1D323F033CBD13AC19080B2C120330ED2AAC1D2D16220E9715000B033458
S1230500010E981517168415833F1834833B3D168015AD19040B2D120330ED2AB239323DE9
S1230520ED2ABE1D323F033CBD13BD3BAC19080B2C120330ED2AAC1D2D16220E9715000BFA
S12305400334010E981517168415833F1834833B3D168015AD19040B2D120330ED2AB239E1
S1230560323DED2A323DED2AB336ED2A3237D02ABE19640B3E120334CE2A971D06349719A5
S12305801716981501080331ED2A3D0B3E120330CC2ABE1D323BED2A323DED2A323DED2AFD
S12305A0BE19320B3E12971D03301738000B17170335EC2A0634ED2A290B3E120330EA2AFA
S12305C0000B17170335E82ABE1D323FB23AED2A323DED2A323DED2A323D0C00040A000AA6
S12305E0000A000A3B0A000A010A000A010A000A3C0A000A010A000A020A000A3D0A000A9E
S1230600010A000A030A000A3E0A000A010A000A010A090A110A220A170A090A110A220A63
S1230620170A090A110A220A170A090A110A220A170A090A110A220A010A090A110A220AE0
S1230640170A090A110A220A170A090A110A220A170A090A110A220A170A090A110A220AAA
S1230660010A090A110A220A170A090A110A220A170A090A110A220A170A090A110A220AA0
S1230680170A090A110A220A010A090A110A220A170A090A110A220A170A090A110A220A80
S12306A0170A090A110A220A170A090A110A220A010A090A110A220A170A090A110A220A60
S12306C0170A090A110A220A170A090A110A220A170A090A110A220A010A090A110A220A40
S12306E0170A090A110A220A170A090A110A220A170A090A110A220A170A090A110A220A0A
S1230700010A090A110A220A170A090A110A220A170A090A110A220A170A090A110A220AFF
S1230720170A090A110A220A010A090A110A220A170A090A110A220A170A090A110A220ADF
S1230740170A090A110A220A170A090A110A220A010A090A110A220A170A090A110A220ABF
S1230760170A090A110A220A170A090A110A220A170A090A110A220A010A090A110A220A9F
S1230780170A090A110A220A170A090A110A220A170A090A110A220A170A090A110A220A69
S12307A0010A090A110A220A170A090A110A220A170A090A110A220A170A090A110A220A5F
S12307C0170A090A110A220A010A090A110A220A170A090A110A220A170A090A110A220A3F
S11307E0170A090A110A220A170A090A110A220A0F
S305000060603A
S903FFFFFE
