S12300009A293A3F2B169715981D171C9715181C98152C1699159A1D1716191003311528D0
S123002018161A10033115281628D92829169715981D171C9715181C98152A1699159A1DAF
S1230040171619100331292818161A10033129282A28D928000B291703352F28D928BA32CA
S12300603228D928BA3A2C16450803313D283A303A28D9283A38BA3FE4203A344028D928F2
S12300802C16460803314728DA20E420D9282C16470803316728971DBB3697191716000B49
S12300A00335010B9715981517130330BB3E0334BB3A2116A4152216A5152316A6150A0B32
S12300C0B8153A3DB71DFF0BB515E420D9282C16440803317428400B9B15380B9C15FA0BD9
S12300E09F15BA3BE420D9282C16400803317D28800B9B15700B9C156F282C16430803312C
S12301009128971D3B3697191716000B0335010B97159815171303303B3E03343B3AE420F2
S1230120D9282C16160803319728000BDF202C16190803319D28010BDF202C160D0803316B
S1230140A328020BDF202C160C080331A928030BDF202C1618080331AF28040BDF202C169F
S12301605E080331B528050BDF202C1608080331BB28060BDF202C161C080331C128070BE7
S1230180DF202C165A080331C728080BDF202C1642080331CD28090BDF202C1652080331EB
S12301A0D3280A0BDF202C164A080331D9280B0BDF200C003A3CBB38030BB3150C00B01532
S12301C03B3E6F21E4200C00190BB6150C003A37FC28410B27120334EE281A294C0B2712CD
S12301E00330F3281A293A3BA91DAA1DAB1DAC1DBA3E200BAD151A29290B271203300229E4
S12302003A3F1A291E0B271203300E29AE19060B2E1203300D293B3801201A29110B2712A5
S1230220AB13AC13A913AA13AD1B000B2D1703311A2901200C00381637120330282946396F
S12302404638C638330B371203302B29B71D2B29463D463CC63C0C00B219040B3212033084
S12302606E29B21DB11B000B3117033145297F0BA2157F0BA1157F0BA315B419060B34126C
S123028003304329B41D7F0BB115000B341703314C29A219A31B6E29341601080331532988
S12302A0A21BA3196E293416020803315A29A119A31B6E293416030803316129A11BA31985
S12302C06E293416040803316829A119A21B6E293416050803316E29A11BA2190C0030166F
S12302E04F0E9D15020B0334010E9E151D1695151E169615800B2722A1153016430E9D1556
S1230300020B0334010E9E151D1695151E169615800B2722A2153016370E9D15020B03340B
S1230320010E9E151D1695151E169615800B2722A3150C008E3F0E000D220A223B3A3A3886
S123034086398E3889398E3BBB30AF294B3C0F3C0000000000000B00000000000000000BDE
S123036039170331B5293A34B9294638C6384639C2293B32BF29463CC63C463DC229BB32AD
S1230380C2291B213B31A4293B3D0E00000B39170331E8293A30E9293B32D0292C21E92992
S12303A0BB32E929B5190B0B35120330E929B51D3A31E129B819330B38120330E9293A3D6E
S12303C0E929B81B0A0B38120334E9293A39E929B91BEC21A4290C009F1B000B1F1703351A
S12303E0F229092AFA0B9F153A34FD29B31B000B33170331FC29DA20092ABA37002A092A67
S1230400FF0B9B1F03309C1B1B161C170331092ADA200C00FA0B9F150C0006388638063959
S1230420C51DC61DC639FF0B8B15FF0B8D158C1D010BC115F00B81150E38CB1D860BCC15E2
S1230440F90BCE15CF1D800B8815891D0C00000803352E2A80080335322A000A1516841569
S123046000160C0016168A15151682150C00FF0AFF0A0E0AFC0AF70A260AFF0AAE0AD60ABB
S1230480230AD60A750AFF0A0E0AFF0A8B0A180AF70A260A1F0A260A580AF70ADD0A0E0AFF
S11904A0FF0AFF0A1A0AA00AE30A000AAE0A310AE30A270AAE0AA2
S30500001230B8
S903FFFFFE
