:020000040000FA
:06000000A7EF00F0120062
:02002A000000D4
:04002C002A0EF66E34
:10003000000EF76E000EF86E00010900F550C56F56
:100040000900F550C66F03E1C56701D03DD0090036
:10005000F550C06F0900F550C16F0900F550C26F2F
:1000600009000900F550E96E0900F550EA6E090033
:1000700009000900F550C36F0900F550C46F09006D
:100080000900F6CFC7F0F7CFC8F0F8CFC9F0C0C06D
:10009000F6FFC1C0F7FFC2C0F8FF0001C35302E181
:1000A000C45307E00900F550EE6EC307F8E2C40739
:1000B000F9D7C7C0F6FFC8C0F7FFC9C0F8FF0001F5
:0A00C000C507000EC65BBFD7120093
:0600CA0081CFCAF080CFD7
:1000D000CBF081CFCCF081CFCDF00001CA51CB2540
:1000E000806ECC51CD25806ECB51CA5D816ECD51D5
:1000F000CC5D816E000EE76ECA19E8AE02D0CA353B
:1001000003D0E750D880CA5502E2CBC080FFCC5163
:10011000000802E2CDC080FFFD0EE76ECA19E8AE0E
:1001200002D0CA3503D0E750D880CA5502E2CBC00E
:1001300080FFCC51FD0802E2CDC080FFCD1DCC5D1B
:0E01400002E1CDC080FF330ECD6FCC6FFFD734
:02014E0010EEB1
:1001500080F020EE80F0F86A019C16EC00F065EC6F
:0601600000F0FDD71200C3
:00000001FF
